:100000001DC037C036C035C034C09AC332C031C0FD
:1000100030C02FC02EC02DC02CC02BC02AC0010262
:100020000000040001020408102002020202020281
:1000300000000000380000000000370011241FBE3F
:10004000CFE5D2E0DEBFCDBF10E0A0E6B0E0EAE051
:10005000FFE002C005900D92A836B107D9F721E064
:10006000A8E6B0E001C01D92AE37B207E1F738D57F
:100070004AC7C6CF80E020D489359240CCF4809125
:100080006B00882321F18091690090916A00499763
:100090000CF1109273001092720081E0809368005E
:1000A00082E090E010926A001092690020E00CC09B
:1000B0008091690090916A00019690936A00809304
:1000C000690021E090E080E020936B00089590E0CB
:1000D00080E0E8CF81E090E0E5CF90E080E0FDD6E1
:1000E00091E08A3209F090E0892F0895CF93DF9351
:1000F00000D000D0CDB7DEB781E090E0EED68983A6
:1001000082E090E0EAD68A8383E090E0E6D68B83B3
:1001100084E090E0E2D68C8369817A818B819C8136
:100120000F900F900F900F90DF91CF910895CF9384
:10013000DF9300D000D0CDB7DEB769837A838B839D
:100140009C836AE290E080E0D0D6698181E090E013
:10015000CCD66A8182E090E0C8D66B8183E090E0E3
:10016000C4D66C8184E090E0C0D60F900F900F90C1
:100170000F90DF91CF910895CF93DF9300D000D0FF
:10018000CDB7DEB787E090E0A8D6898388E090E01D
:10019000A4D68A8389E090E0A0D68B838AE090E0A1
:1001A0009CD68C8369817A818B819C816CD5CB01B3
:1001B0000F900F900F900F90DF91CF910895CF93F4
:1001C000DF9300D000D0CDB7DEB769837A838B830D
:1001D0009C836AE290E080E088D6698187E090E0C5
:1001E00084D66A8188E090E080D66B8189E090E0D7
:1001F0007CD66C818AE090E078D60F900F900F90BB
:100200000F90DF91CF91089586B1887F86B9329A99
:1002100080E04FC30F931F93CF93DF9361E082E0A1
:100220001DD481E090E027D361E084E017D481E021
:1002300090E021D360E082E011D4C4E8D0E081E016
:1002400090E019D360E084E009D481E090E013D31A
:1002500061E084E003D4219791F781E090E00BD333
:1002600060E084E0FBD365E070E080E090E0D9D20C
:1002700061E082E0F3D381E090E0FDD261E084E0D0
:10028000EDD381E090E0F7D260E082E0E7D3C4E70D
:10029000D0E004E711E084E190E0EDD283E00CD3FC
:1002A0008993999360E084E0D9D381E090E0E3D230
:1002B00061E084E0D3D30C171D0769F781E090E07B
:1002C000DAD261E082E0CAD381E090E0D4D260E08B
:1002D00084E0C4D381E090E0CED260E082E0DF91A0
:1002E000CF911F910F91BAC38091740090917500C6
:1002F0002091760030917700820F931F2091780033
:1003000030917900820F931F20917A0030917B0009
:10031000820F931F20916A0130916B0140916C0113
:1003200050916D01240F351F40916E0150916F0166
:10033000240F351F4091700150917101240F351F1A
:100340004091720150917301240F351F40917C0040
:1003500050917D00840F951F863F934124F081E0EA
:10036000263F33410CF480E008952F923F924F9244
:100370005F926F927F928F929F92AF92BF92CF9235
:10038000DF92EF92FF920F931F93CF93DF93CDB73E
:10039000DEB728970FB6F894DEBF0FBECDBFA6E735
:1003A000B0E042E050E01A82198210E000E090E0F4
:1003B00080E070E060E0FD012281338112960190BF
:1003C000F081E02D2E1B3F0B021713070CF4E7C042
:1003D000E981FA812E173F071CF43A832983CA0169
:1003E0004F5F5F4F4E37510531F7FC01EE0FFF1F96
:1003F000EE58FF4F00811181FC01EE0FFF1FE05905
:10040000FF4F20813181201B310B38872F83FC0166
:10041000EE0FFF1FEC58FF4FE080F180FC01EE0F64
:10042000FF1FEA58FF4F208131816701C21AD30AAA
:10043000FB01EE0FFF1FEE58FF4F20803180FB01C4
:10044000EE0FFF1FE059FF4F20813181A9014219B2
:1004500053095C834B83FB01EE0FFF1FEC58FF4FEA
:10046000208131813A832983FB01EE0FFF1FEA5877
:10047000FF4F2081318149815A81421B530B5E839A
:100480004D83681B790B072E000C880B990B2ED41B
:100490004B015C016F8178856C197D09072E000C7A
:1004A000880B990B23D42B013C010E191F09000F57
:1004B000111F6F817885601B710B6C0D7D1D072EE0
:1004C000000C880B990B12D49B01AC01C301B20143
:1004D00072D320E030E040E05FE394D49B01AC01B4
:1004E000C501B40103D36B017C016B817C818D81DB
:1004F0009E81681B790B072E000C880B990BF6D395
:100500004B015C01E981FA812E1A3F0A220C331C4F
:100510006B817C81621973092D813E81620F731F8B
:10052000072E000C880B990BE1D39B01AC01C50190
:10053000B40141D320E030E040E05FE363D49B01AD
:10054000AC01C701B601D3D220E030E04EE752E45F
:1005500059D420E030E04AE754E42DD360936000A2
:1005600070936100809362009093630028960FB6A9
:10057000F894DEBF0FBECDBFDF91CF911F910F91D9
:10058000FF90EF90DF90CF90BF90AF909F908F90B3
:100590007F906F905F904F903F902F9008958901CA
:1005A000BA011ECF61E084E00AD261E082E007D2A6
:1005B00061E080E004D261E081E001D225DE60915B
:1005C00072007091730080E08ED160917000709124
:1005D000710081E088D160E080E0F1D161E080E0ED
:1005E0003DD27BDD882389F081DD609364007093C8
:1005F00065008093660090936700BEDD9093730062
:1006000080937200BC0180E06EC1089503DE32DD8C
:10061000813059F4109273001092720070E060E023
:1006200080E061D181E080936800F4DD8091680012
:10063000882309F446C058DE81110FC06091720012
:10064000709173006F3F710544F46F5F7F4F70933B
:1006500073006093720047D12BC01092680085DE52
:1006600020916000309161004091620050916300E0
:1006700066E676E686E390E49ED26093640070932B
:10068000650080936600909367006091720070919E
:100690007300072E000C880B990B28D390DD609116
:1006A00064007091650080916600909167003FDD65
:1006B00080916800882381F165E070E080E090E03F
:1006C000B0C053DE20916400309165004091660017
:1006D00050916700609160007091610080916200AC
:1006E000909163008FD360936C0070936D00809342
:1006F0006E0090936F0020E030E040EA50E45BD25F
:1007000020E030E04FE753E47DD3BDD27093710019
:100710006093700081E09FCF6AEF70E080E090E02E
:10072000CFCF80B7807F80BF80B7806880BF8CB517
:1007300080648CBD8FEF8DBD80B7876080BF0895CA
:100740001F920F920FB60F9211242F933F938F9306
:100750009F93AF93BF938091750190917601A09183
:100760007701B09178013091740126E0230F2D3785
:1007700068F129E8230F0396A11DB11D2093740190
:100780008093750190937601A0937701B0937801DF
:100790008091790190917A01A0917B01B0917C01C7
:1007A0000196A11DB11D8093790190937A01A093C8
:1007B0007B01B0937C01BF91AF919F918F913F914D
:1007C0002F910F900FBE0F901F9018950296A11DAC
:1007D000B11DD4CF3FB7F8948091790190917A01FF
:1007E000A0917B01B0917C0122B708B601FE05C043
:1007F0002F3F19F00196A11DB11D3FBFBA2FA92FA0
:10080000982F8827BC01CD01620F711D811D911D9C
:1008100043E0660F771F881F991F4A95D1F7089507
:100820000895CF92DF92EF92FF92CF93DF936B0107
:100830007C01D0DFEB01C114D104E104F10461F0CB
:10084000EFDFC8DF6C1B7D0B683E7340A0F3C11463
:10085000D104E104F10439F4DF91CF91FF90EF90DE
:10086000DF90CF90089581E0C81AD108E108F1081F
:10087000C851DC4FE6CF8330910528F0880F991FCF
:1008800004970197F1F708958AB582608ABD8AB509
:1008900081608ABD83B7887F836083BF789489B77E
:1008A000826089BF3EDF86B18877866886B9379ACD
:1008B000089580937D01089590917D019295990FFF
:1008C000990F907C8F70982B97B997B180917D018B
:1008D000880F880F8071892B87B9369A3699FECF99
:1008E00084B195B108951F93CF93DF93182FEB0137
:1008F00061E065D01C161D0634F060E0812FDF91A9
:10090000CF911F91ABC0CF3FD10514F061E0F6CF7E
:10091000E12FF0E0E25EFF4FE491E13059F48AB557
:1009200080688ABD8AB58F7B8ABDC9BDDF91CF91B2
:100930001F910895E23041F48AB580628ABD8AB57C
:100940008F7E8ABDC8BDF2CFE33041F480B78062AC
:1009500080BF80B78F7E80BFCEBDE8CFE43041F44A
:100960008CB580628CBD8CB58F7E8CBDCBBDDECF4F
:10097000C038D1055CF6C1CF813039F48AB58F77A4
:100980008ABD8AB58F7B8ABD0895823031F48AB5DD
:100990008F7D8ABD8AB58F7EF6CF833039F480B7DC
:1009A0008F7D80BF80B78F7E80BF0895843031F403
:1009B0008CB58F7D8CBD8CB58F7E8CBD0895CF930B
:1009C000DF9387FF09C08F7771F1813071F1823039
:1009D00071F1833071F18FEF90E0FC01EC5DFF4F1E
:1009E0002491865D9F4FFC0184918823C9F090E09B
:1009F000880F991FFC01EA5CFF4FA591B491FC019F
:100A0000E05DFF4FC591D491611115C09FB7F89477
:100A10008C91209582238C938881282328839FBFE3
:100A2000DF91CF91089585E0D7CF82E0D5CF84E0E4
:100A3000D3CF83E0D1CF623051F49FB7F8943C918B
:100A4000822F809583238C93E8812E2BE7CF8FB75D
:100A5000F894EC912E2B2C938FBFE2CF1F93CF9362
:100A6000DF93162F87FF09C08F7771F1813071F105
:100A7000823071F1833071F18FEF282F30E0F9016E
:100A8000E25EFF4F8491F901EC5DFF4FD491F901D3
:100A9000E65DFF4FC491CC2399F081116DDFEC2FFF
:100AA000F0E0EE0FFF1FE05DFF4FA591B4918FB70F
:100AB000111112C0F894EC91D095DE23DC938FBF16
:100AC000DF91CF911F91089585E0D7CF82E0D5CFF8
:100AD00084E0D3CF83E0D1CFF894EC91DE2BEECF3E
:100AE00081B781BFD1DE5EDD91DDFECF5058BB27DF
:100AF000AA270ED04DC13ED130F043D120F031F4C1
:100B00009F3F11F41EF433C10EF4E095E7FB29C1B9
:100B1000E92F4FD180F3BA1762077307840795074F
:100B200018F071F49EF567C10EF4E0950B2EBA2F04
:100B3000A02D0B01B90190010C01CA01A0011124E3
:100B4000FF27591B99F0593F50F4503E68F11A168F
:100B5000F040A22F232F342F4427585FF3CF469520
:100B600037952795A795F0405395C9F77EF41F1642
:100B7000BA0B620B730B840BBAF09150A1F0FF0F0C
:100B8000BB1F661F771F881FC2F70EC0BA0F621FF8
:100B9000731F841F48F4879577956795B795F795E8
:100BA0009E3F08F0B3CF9395880F08F09927EE0F7A
:100BB0009795879508950CD0EBC0E3D040F0DAD03C
:100BC00030F021F45F3F19F0CCC0511115C1CFC0F6
:100BD000F0D098F39923C9F35523B1F3951B550B26
:100BE000BB27AA2762177307840738F09F5F5F4F00
:100BF000220F331F441FAA1FA9F333D00E2E3AF041
:100C0000E0E830D091505040E695001CCAF729D05A
:100C1000FE2F27D0660F771F881FBB1F26173707A9
:100C20004807AB07B0E809F0BB0B802DBF01FF27D9
:100C300093585F4F2AF09E3F510568F092C0DCC088
:100C40005F3FECF3983EDCF3869577956795B79513
:100C5000F7959F5FC9F7880F911D9695879597F92E
:100C60000895E1E0660F771F881FBB1F62177307A7
:100C70008407BA0720F0621B730B840BBA0BEE1FBC
:100C800088F7E095089504D06894B111B5C008952F
:100C900098D088F09F5790F0B92F9927B751A0F0BE
:100CA000D1F0660F771F881F991F1AF0BA95C9F700
:100CB00012C0B13081F09FD0B1E008959CC0672F81
:100CC000782F8827B85F39F0B93FCCF386957795B0
:100CD0006795B395D9F73EF4909580957095619599
:100CE0007F4F8F4F9F4F0895E89409C097FB3EF4C4
:100CF00090958095709561957F4F8F4F9F4F992369
:100D0000A9F0F92F96E9BB279395F69587957795E6
:100D10006795B795F111F8CFFAF4BB0F11F460FFA6
:100D20001BC06F5F7F4F8F4F9F4F16C0882311F0FE
:100D300096E911C0772321F09EE8872F762F05C012
:100D4000662371F096E8862F70E060E02AF09A95AD
:100D5000660F771F881FDAF7880F9695879597F9A2
:100D6000089597F99F6780E870E060E008959FEF2D
:100D700080EC089500240A94161617061806090632
:100D8000089500240A941216130614060506089501
:100D9000092E0394000C11F4882352F0BB0F40F489
:100DA000BF2B11F460FF04C06F5F7F4F8F4F9F4FC9
:100DB000089557FD9058440F551F59F05F3F71F04B
:100DC0004795880F97FB991F61F09F3F79F08795B2
:100DD0000895121613061406551FF2CF4695F1DF3B
:100DE00008C0161617061806991FF1CF86957105CB
:100DF000610508940895E894BB2766277727CB01FF
:100E000097F908950AD0C4CFB5DF28F0BADF18F0FB
:100E1000952309F0A6CFABCFEFCFCBDFA8F3992373
:100E2000D9F35523C9F3950F50E0551FAA27EE2794
:100E3000FF27BB2700240894679520F4E20FF31FD7
:100E4000B41F0A1E220F331F441FAA1F6695A9F75D
:100E5000779530F4F30FB41F0A1E121E08F4639541
:100E6000330F441FAA1F221F769599F7879520F408
:100E7000B40F0A1E121E631F440FAA1F221F331F26
:100E80008695A9F7862F712D602D11249F5750400C
:100E90008AF0E1F088234AF0EE0FFF1FBB1F661FA8
:100EA000771F881F91505040A9F79E3F510570F061
:100EB00058CFA2CF5F3FECF3983EDCF38695779551
:100EC0006795B795F795E7959F5FC1F7FE2B880F5C
:100ED000911D9695879597F90895E199FECF9FBB4F
:100EE0008EBBE09A99278DB30895262FE199FECF06
:100EF0001CBA9FBB8EBB2DBB0FB6F894E29AE19A49
:0A0F00000FBE01960895F894FFCF8C
:080F0A00000012400000803FCE
:00000001FF
